:10000000003C0020F1040000F9000000FD000000A9
:1000100000000000000000000000000000000000E0
:1000200000000000000000000000000001010000CE
:1000300000000000000000000501000009010000B0
:100040000448054B10B5834203D0044B002B00D06D
:10005000984710BD0C0000200C000020000000009C
:1000600006480749091A8B10C90FC91810B549105D
:1000700003D0044B002B00D0984710BD0C0000208B
:100080000C0000200000000010B5074C2378002B66
:1000900009D1FFF7D5FF054B002B02D0044800E043
:1000A00000BF0123237010BD0C00002000000000E1
:1000B000B40E0000054B10B5002B03D004490548D1
:1000C00000E000BFFFF7CCFF10BDC04600000000FD
:1000D00010000020B40E0000024A53785BB2002BDF
:1000E000FBDB7047000C004010230249CA681A422B
:1000F000FCD07047000800400EBEFEE70DBEFEE7D4
:1001000005BEFEE702BEFEE71E4A1F4B117800291E
:1001100008D11978587809188020C9B259701B493C
:10012000C003086011780131C9B211705978F02903
:1001300002D85978092908D81978494249B2197062
:10014000197858780918C9B2597011785B789942B2
:1001500003D180210D4BC90319605388002B09D0AE
:100160005388013B9BB25380002B03D18021084B65
:10017000090419609388002B03D09388013B9BB23C
:100180009380704728000020000000209C4400411C
:1001900098440041094B30B5DC6898601B69084AF7
:1001A000084D9B00844200D830BD4108D1611580C4
:1001B000117DC907FCD5C018F4E7C046280000200F
:1001C0000040004102A5FFFF034BC0B21A7ED207D8
:1001D000FCD5188501207047001C0042024B187E98
:1001E0004007C00F7047C046001C004210B5FFF723
:1001F000F5FF0028FBD0074B1A7E5207FCD55A8B1F
:10020000D20703D45A8B920700D45A8B188DC0B2F0
:1002100010BDC046001C004270B504000D00461819
:10022000B44201D1280070BD2078FFF7CDFF013422
:10023000F6E710B50400FFF7D9FF2070012010BDCC
:10024000F7B5002506000F002C00FFF7CFFF134A7B
:10025000137D002B1FD1124B0193230A1900FF239A
:10026000034059404B00019924025B5A5C40D38AF9
:10027000A4B2002B02D1127E002A06D03070802F4B
:1002800002D1064A013BD38201360135ADB2AF42FD
:10029000DBD12000FEBD0124FBE7C0462800002082
:1002A000B40C0000F0B50C000021354B85B00127DF
:1002B000039019758C4208D07F222700DC821740FA
:1002C000144202D00F00803494431F76FFF78EFF54
:1002D000C0B2432803D071284FD01528F6D101268B
:1002E0000120FFF771FF3000FFF76EFFF043C0B24F
:1002F000FFF76AFF039B0025009380230193204AA8
:10030000D38A002B02D10293002F07D00099013B22
:10031000D382009B09780133029100930298FFF782
:1003200053FF02992B0A174A4B405B0028029D5A43
:10033000019B4540013BADB20193002BDFD1280A60
:10034000FFF742FFE8B2FFF73FFFFFF74FFFFF2342
:100350001840062805D1039B01368033F6B2803C55
:100360000393002CBCD10420FFF72EFFFFF73EFFC4
:100370000120034B1C7605B0F0BD0020FBE7C04612
:1003800028000020B40C00000022F0B52B4F06001E
:10039000012385B03A75914201D01300F98264249B
:1003A0003B764320FFF710FF254DFFF717FF00288E
:1003B00009D1002D05D1013C002CF2D1200005B05F
:1003C000F0BD013DF1E7002DF5D00125FFF70EFF4F
:1003D000FF231840012805D004282CD00023012435
:1003E0003B76EBE7022103A8FFF72AFF80213000CC
:1003F000FFF726FF0190FFF7F9FE0402FFF7F6FE74
:10040000A4B22418019BA4B2A34209D102AB1B7968
:10041000AB4205D1EB4302AA5279DBB29A4203D038
:100420001820FFF7D1FED9E706200135FFF7CCFEF3
:10043000EDB28036CAE70620F3E7C0462800002068
:1004400000350C00030010B5080011009847802209
:10045000034B12041A606422024B5A8010BDC0463E
:100460009444004128000020F0B51F4B0A00597E3B
:10047000DE6985B0002922D0042A26D10D23082167
:1004800000686B4430251C00AC460F2505402F004A
:100490003737092D01D867462F432770013C0009E3
:1004A0001D1B8D42F1D36846104B013283800A2315
:1004B00052000430835443180D210232D9700100D8
:1004C000F068FFF7BFFF05B0F0BD022A04D1092391
:1004D000042100886B44D5E710235100CB186B44EE
:1004E00000780B3BCEE7C0462800002030780000A3
:1004F0001148124B10B5984210D11148114B984237
:100500000AD0C11E0022994203D803331A1A920856
:100510009200002100F068FB00F018F80A498142BF
:10052000EBD0C41E00229C4203D803331A1A92084F
:10053000920000F061FBE0E7000000200C000020CA
:100540000C000020C8010020B80E0000F0B5C64A1B
:100550008FB0136801331BD0C44BC549D0B21962A8
:10056000002815D1C34B1978C34BC907CC0F0029FC
:1005700008D01860FF2311009943C04B996053685D
:10058000184705E01868BE49884200D065E11C6044
:100590001E220227BB49BC4C4B68BC4D93433B43D6
:1005A0004B60A760FFF798FDB94B6360FFF794FDC0
:1005B000AF84FFF799FDB74B1B689B0E3F2B00D113
:1005C000203B0027B44A9B021343B44AEA62AB6261
:1005D000AF84FFF789FDB24BAB84FFF785FD0222A4
:1005E000AB8C16001343AB84FFF77EFD3F2263887C
:1005F00093433343638080236288DB01134363802A
:10060000A760FFF769FDA74B6360FFF765FDC0209A
:10061000A54AA64B994953609C460B6A00061B02EB
:100620001B0A03430B6207239760136062B6012025
:100630009F4D0F372B7803432B709E4B1D78BD4386
:100640001D701D7835431D709B4D2E7830432870EA
:1006500018783840187020201D782843187080239F
:100660009648056A2B430362954B638063785BB2BF
:10067000002BFBDB934BD8698007FCD4022418685D
:10068000A0431860D869C007FCD401201C6820432F
:1006900018601868C007FCD4D869C007FCD4D869B2
:1006A0008007F9D488481860D8694007FCD4C02076
:1006B0008002586085489881D8698007C00FC5B20C
:1006C000002DF9D102241F683C431C60674C804B0D
:1006D0002075D877A31DD877E31DD877230008337A
:1006E000D87723002833187080237A48DB0303600F
:1006F00080231B040360784803606346C020536076
:100700000B6A00061B021B0A03430B62072395605A
:100710001360220029321378DDB2002BFBD1FFF7E2
:100720005DFD0028F5D0FFF761FD2328F1D16B4B6B
:1007300001220193E361230006A92A331A700A00FB
:10074000019B1C33C1CBC1C2C1CBC1C281CB81C211
:100750004C4A93685B035B0F9B005B58110023615D
:10076000926892B253432200E3600B8B2B32DB057D
:10077000DB0F137023007A223033E5621A70E369CD
:1007800040211B6956489847002801D06423A38064
:10079000534B6067A3670023E367E26F636F9A427E
:1007A000EDD2A36F1B78FF2B50D04E4D232B00D0E2
:1007B000D6E1637E002B05D0E36902224A49D8685E
:1007C000FFF740FE230030331878532800D091E023
:1007D000666FE76FBE4214D9A36F013701330293EE
:1007E0002B68F61B9E4200D91E003200E06A029977
:1007F0006E6000F001FA029BBF199B19E767A367BF
:100800002E72E36F374A013BE367A36F1168013B28
:10081000A367137A8B4208D2C91AE369E06A9B691D
:100820009847002801D06423A380C04623007A2281
:1008300030331A7000222B4B1A60637E934205D02E
:10084000E3692A49D8680132FFF7FCFDE36F013301
:10085000E367A36F0133A3679FE719602449013958
:100860000029FCD1196085E6002000002800002046
:100870000420000038040040FC3F002000ED00E0B0
:10088000EF6916F000400041000C004000080040F5
:100890000600010024608000FF01000080BB0A1CEC
:1008A000240500000007030010E000E0E70300005B
:1008B000544400413A440041554400410004004082
:1008C00019400000001C0042040031402AF6FFFFDE
:1008D0002D0000208844004198440041640C000031
:1008E00059000020A80000205F0C0000620C0000EE
:1008F00048E8010057285DD020D84F2852D0522810
:1009000038D0482852D023002B331B78002B1ED11F
:1009100047281CD12B6872B6EFF30882EA605B6847
:100920001847EB6862B623002A331B78002B00D1EE
:100930007CE7E36941381B68984777E723002B334E
:100940006F283BD0772855D0682845D01B784E3883
:100950000C2800D96AE700F059F9630069FF69FFC4
:1009600069FF69FF69FF5A0069FF6F0069FF8E0028
:100970009A00D50023002B331B78002B06D0802350
:10098000E26A9B059A4201D2884BE362E3692968D7
:100990005B69E06A98478022854B12041A606423E1
:1009A000638043E7E36A2A681A703FE7E36A2A68CC
:1009B0001A803BE7E36A2A681A6037E71B78002B46
:1009C00005D0E36A7B4A043B934200D8E5620121EB
:1009D000E06AFFF749FD29E71B78E16A002B04D0A4
:1009E00074480B1F0022834200D90A8802212A6022
:1009F0002800EEE71B78E16A002B04D06D480B1F3E
:100A00000022834200D90A6804212A60F0E701230A
:100A1000022263766849E369D868FFF713FD05E7AA
:100A2000637E002B05D1E36902226349D868FFF792
:100A300009FD00236376F9E6E3690122D8685F497E
:100A4000FFF700FDE3690199D86803223C31FFF705
:100A5000F9FCE3690122D8685949FFF7F3FCE3691F
:100A600001990E22D8684031FFF7ECFC5549172256
:100A7000E369A167D0E7002B06D12868FFF78AFB5E
:100A800051490322E369C7E780208001F6E72A681D
:100A9000E66A002A02D12E614C49F2E7002B06D00B
:100AA0008020A3688001834201D0FFF773FB802080
:100AB000474A2B6851682F698143516021699B081F
:100AC0008908039143498C46002BE5D042491180A7
:100AD000117DC907FCD535000021029703982E002F
:100AE000029F814201D0994206D160461080107D5C
:100AF000C007FCD55B1AE7E70298013140C80290B5
:100B000040C5EBE729680025E36A34485918994243
:100B10001CD1E3690122D8683149FFF793FC0F2605
:100B200007232A003240D0B201002D093031092AB2
:100B300000D9073104AA9954013BF2D2E36904A910
:100B40000822D868FFF77EFC26499AE71E782A0A11
:100B5000724052002E02155A01337540ADB2D6E7ED
:100B60001A00303AD1B2092904D82B681B0113436B
:100B70002B606BE61A00413A052A03D82A68373BF6
:100B80001201F4E71A00613A052A03D82A68573B94
:100B90001201ECE700222C2B03D12B68E3622A60C0
:100BA00054E6210030310B70F9E7C04600500020B8
:100BB00094440041FBFFFF1F5F0C0000380C000055
:100BC0003A0C00003C0C0000540C0000580C0000D3
:100BD0000040004104A5FFFF44A5FFFFB40C000046
:100BE0005C0C00005E0C000003008218934200D1F0
:100BF000704719700133F9E7002310B59A4200D10C
:100C000010BDCC5CC4540133F8E7000003B4714656
:100C1000490840004900095E49008E4403BC704702
:100C2000F8B5C046F8BC08BC9E467047F8B5C0464B
:100C3000F8BC08BC9E46704776002000204E6F76B8
:100C400020203520323032352032313A30333A30BC
:100C5000320A0D00580A0D00590A0D005A00230AE5
:100C60000D003E00C9010000ED010000DD010000A3
:100C70001902000033020000A502000089030000F1
:100C800008000000100000002000000040000000EC
:100C900080000000000100000002000000040000CD
:100CA000322E30005B41726475696E6F3A58595A42
:100CB000505D000000002110422063308440A550A8
:100CC000C660E770088129914AA16BB18CC1ADD192
:100CD000CEE1EFF13112100273325222B55294423A
:100CE000F772D662399318837BB35AA3BDD39CC3E2
:100CF000FFF3DEE36224433420040114E664C77486
:100D0000A44485546AA54BB528850995EEE5CFF531
:100D1000ACC58DD55336722611163006D776F666D9
:100D20009556B4465BB77AA719973887DFF7FEE781
:100D30009DD7BCC7C448E5588668A77840086118A5
:100D400002282338CCC9EDD98EE9AFF948896999D1
:100D50000AA92BB9F55AD44AB77A966A711A500A79
:100D6000333A122AFDDBDCCBBFFB9EEB799B588B21
:100D70003BBB1AABA66C877CE44CC55C222C033CC5
:100D8000600C411CAEED8FFDECCDCDDD2AAD0BBD71
:100D9000688D499D977EB66ED55EF44E133E322E19
:100DA000511E700E9FFFBEEFDDDFFCCF1BBF3AAFC1
:100DB000599F788F8891A981CAB1EBA10CD12DC11F
:100DC0004EF16FE18010A100C230E32004502540B5
:100DD00046706760B9839893FBA3DAB33DC31CD315
:100DE0007FE35EF3B1029012F322D2323542145205
:100DF00077625672EAB5CBA5A89589856EF54FE561
:100E00002CD50DC5E234C324A01481046674476454
:100E100024540544DBA7FAB79987B8975FE77EF7B4
:100E20001DC73CD7D326F2369106B01657667676A4
:100E3000154634564CD96DC90EF92FE9C899E98980
:100E40008AB9ABA94458654806782768C018E108F4
:100E50008238A3287DCB5CDB3FEB1EFBF98BD89B54
:100E6000BBAB9ABB754A545A376A167AF10AD01A44
:100E7000B32A923A2EFD0FED6CDD4DCDAABD8BADA0
:100E8000E89DC98D267C076C645C454CA23C832C94
:100E9000E01CC10C1FEF3EFF5DCF7CDF9BAFBABFF4
:100EA000D98FF89F176E367E554E745E932EB23EE4
:080EB000D10EF01E000000004D
:0C0EB80001140100B500000089000000DA
:04000003000004F104
:00000001FF
