:10000000A02D0020650200006102000063020000D4
:1000100000000000000000000000000000000000E0
:10002000000000000000000000000000610200006D
:100030000000000000000000610200005902000002
:100040006102000061020000610200006102000024
:100050006102000061020000610200006102000014
:100060006102000061020000610200006102000004
:1000700061020000610200006102000061020000F4
:1000800061020000610200006102000061020000E4
:1000900061020000610200006102000061020000D4
:1000A00061020000610200006102000061020000C4
:1000B00000000000074B1A7DD207FCD52022FF323A
:1000C0001A83054A4008D8611A801A7DD207FCD5E8
:1000D0007047C0460040004102A5FFFF70B5802573
:1000E0000400AD02AC4200D370BD20000134FFF724
:1000F000E1FFFF34F6E7002330B59A4200D130BD6E
:100100009C000D5901330551F7E70000F0B580253B
:100110000F4C104F6368AB436360002A00D1F0BD01
:100120001300102A00D910230B4DD21A2580257DEB
:10013000ED07FCD500259B004E5946510435AB42D6
:10014000FAD1C918C0182780237DDB07FCD5E4E766
:100150000040004104A5FFFF44A5FFFF802270B5C9
:10016000002304000D005200E858E158884203D1F2
:1001700004339342F8D170BD2000FFF79BFF40226B
:1001800029002000FFF7C2FFF5E700001023024915
:10019000CA681A42FCD07047000800401E2270B5A1
:1001A0002149224C4B6893431C3A13434B60A28471
:1001B000FFF7ECFF1E4B1B689B0E3F2B00D1203B33
:1001C00000251C4A9B0213431B4AE262A362A584DA
:1001D000FFF7DCFF194BA384FFF7D8FF0223A28CA3
:1001E0001343A384FFF7D2FF154B9D605A7852B298
:1001F000002AFBDB134A5A605A7852B2002AFBDB12
:10020000C021114A114B12485360036A09061B02B0
:100210001B0A0B43036200239360073313603022F1
:100220000C4B1A6070BDC046004000410008004001
:1002300024608000FF01000080BB0A1C2405000030
:10024000000C00400007030010E000E0E70300009E
:1002500000ED00E00000002010B500F019F910BD1D
:10026000FEE7FEE72349244870B581420AD0234BBC
:10027000C41E0022A34203D303331A1A9208920029
:1002800001F064FC1E4B1F4900221F48994203D80D
:1002900003331A1A92089200002101F04FFCFF224A
:1002A0001A4B032193431A4A0C2593600222082417
:1002B000184B19485A62C3788B431343C370C378F1
:1002C000AB432343C3703020144B9E7B86431038CE
:1002D00030439873987BA84304439C73987B88436E
:1002E00002439A7380230E4A51680B43536000F017
:1002F00083FEFEE7541D000000000020D401002012
:100300009C0D0020D1010020D4010020000000003D
:1003100000ED00E0FC700041005000410048004149
:1003200000400041F7B5134D01906B88002B18D1A8
:10033000082738001A0292B214B2A4466646540046
:10034000A2B2002E02DA0C4A5440A2B2013880B2A6
:100350000028F1D158002A528022013352009342E2
:10036000E7D1019A0B0A53405B00E85A0902484062
:1003700080B2FEBDD401002021100000074B1B6895
:100380005843074B1A78A723002A00D0123B0122BA
:1003900043439A4200D370470132FAE7000000203D
:1003A000D4030020F0B51C23060000250F270C0005
:1003B000DC403C40002A0BD1002C09D1002B15D089
:1003C000043B002D16D10C000F20DC400440F3E765
:1003D00030208446A444092C01D93734A44664460D
:1003E000043B681C74551C1D07D102E03023681CB7
:1003F0007355F0BD3024681C74550500D7E7000024
:10040000054B064A1A60BFF34F8F054B054ADA6069
:10041000BFF34F8FFEE7C046FC3F0020EF6926F098
:1004200000ED00E00400FA0510B50B4A1368002B3C
:100430000ED10A4911600A490A6801320A60094965
:100440000868002806D0824204D30B60FFF7D8FF6B
:10045000013B136010BDC046E8030020DC0500002E
:10046000E4030020E0030020054B064A1A60BFF3B6
:100470004F8F054B054ADA60BFF34F8FFEE7C0464A
:10048000FC3F0020EF6916F000ED00E00400FA05E3
:100490000122194B19491A70194A13680133136064
:1004A0000A68002A0DD017481018834204D1164B51
:1004B000802212041A6003E0934201D100230B60F2
:1004C00070471248DBB20278002B10D180210E4B0E
:1004D0000904196011000A39C9B20D4BF02902D97B
:1004E0001978494219701B78D3180370E8E79342D2
:1004F000E6D1084BDCE7C046D4030020D803002037
:10050000DC03002018FCFFFF984400410400002099
:100510000500002094440041074B084A1B681168FD
:10052000994207D2FA21C9005B1813608022044B5C
:1005300012041A607047C046DC030020D803002074
:1005400094440041044B80221900120488319833EE
:100550000A601A607047C0460044004170470000BE
:10056000202370B5354A0F20D1690B43D361012296
:1005700033490B7813430B70324B19788143197050
:1005800006211C78214319702F490C7822430A70E8
:100590001A7802401A70602219780A431A702B4A9E
:1005A0002B4B53805378DB09FCD10122294B19785E
:1005B0000A431A709A78D207FCD41F2026490A6889
:1005C000520B0240824200D105221C8D234D024075
:1005D00092012C4022431A850A68920C02401F2A7D
:1005E00000D1023A1F24188D2240A0430243072065
:1005F0001A850A68D20D0240824200D10322198D69
:1006000002401748120301400A437F211A851A78D5
:1006100014480A401A70042219780A430C211A70EF
:1006200058621A898A431A811A890B398A431A81B6
:1006300080220021520001F081FA70BD00040040C8
:10064000584400413C44004159440041000C0040E2
:100650000640000000500041246080003FF8FFFF8A
:10066000FF8FFFFF10040020F7B51C00314B060080
:100670005B6A0F0015000193002C05D144345443EC
:100680002D4BE418FFF7D0FE63782278934210D206
:10069000D51ABD4200D93D00002E08D0211DC91831
:1006A0002A00300001F052FA63785B196370280069
:1006B000FEBD019BA1786A01D318002911D1211D2B
:1006C000196059681D48890B8903596059680140B0
:1006D00059601B495518402128790143297101218E
:1006E000A170144900255118019116495218127A27
:1006F000D207DCD55D68A278EDB22570022A04D15C
:100700002A001968201D01F021FABD4200D93D00E0
:10071000002E0CD02A0030006570211D01F016FA61
:100720000122019BFF331A720023A370BFE766709A
:10073000F6E7C0460050004110050020FF3F00F0E2
:1007400000510041FF50004110B50023FFF78CFF1E
:1007500010BDF8B505000C0016001F00002C00D1DC
:10076000F8BD210028003B003200FFF77DFF241A6E
:100770002D18F3E7F8B50D001F4956014C6A3419DE
:10078000002B1BD063695B005B08636120616369B8
:10079000AA049B0B920C9B03134363616369174A82
:1007A0001748134063613218022380211600137228
:1007B0009171327A1A42FCD02800F8BD0121636998
:1007C0005B005B0F03339940A94209D8043A531EDA
:1007D0009A416369D1075A0052080A436261D5E71A
:1007E00044275743074B0100FF182A00380001F047
:1007F000ADF93800CAE7C04600500041FF3F00F0A5
:10080000FF5000411405002010B50023FFF7B2FF90
:1008100010BD000010B5054A0B001188994200D99F
:1008200019000022FFF7F0FF10BDC046EC030020C6
:1008300007B500216B460A00D81D0170FFF7E4FFE1
:1008400007BD0000F0B5B74C9BB0FFF7EDFDA38BE3
:1008500008211A000A400392B34A0B422DD080238C
:100860004020A183A372C02409315170907153714B
:10087000AE4BAF4D5968A4052940214359605969D1
:1008800029400C43AB495C611960AB4919615C6854
:10089000AA490C4080218902214359605968890B7B
:1008A0008903596050710022A54B1A70A44B187827
:1008B000431E9841C0B21BB0F0BD1020137A034212
:1008C000F4D0A04B107200930098009E8079768936
:1008D00002909D4D00989B88C788C0792E80402546
:1008E00001909A4E009800895571B34200D1B4E14D
:1008F00036DC81246400A34200D1C2E115DC822BE6
:1009000000D194E106DC803B012B00D88AE1202352
:100910009371CBE7802149008B42F8D00221FF314F
:100920008B42F4D1FFF784FFC0E7B02189008B42EE
:1009300000D171E10EDC0139FF398B42E7D0A23BD7
:100940008349FF3B0B42E2D100230821089309931E
:1009500008A8C3E0C02189008B42D8D07D49DFE7D9
:100960007D488342DED000DD98E07C498B4212DC7A
:1009700001398B4200DBABE079498B42E4D0603136
:10098000FF318B42C3D1FFF753FF80235B423B43D0
:10099000DBB2A3728AE78821694809018B4200D142
:1009A00094E080318B42B2D10770FFF741FFA02362
:1009B00003225B00E254C0225C4B5D49586C9205F7
:1009C0000840104358644620FF30255465483027BE
:1009D0001864902040002754586B8026084010432C
:1009E00058639220400026545F481863B0204000AE
:1009F0002554586F08405867B220400026543C30B8
:100A00007D3E2654FC3884469C44604606680E4071
:100A100016430660A0208446A6269C446046FF3606
:100A2000A555524E0660C0267600A7551F00943784
:100A30003E6880200E4016433E60C2261F007600AE
:100A4000A0554B4E90373E60E02644277600A755D0
:100A50000436A555A055C01984469C4460460668D6
:100A60000E4016430660D42084469C4460460668C7
:100A70000E4016430660F02680207600A755043607
:100A8000A555A0551C00E4342068F43308401043F9
:100A90002060186801400A431A6007E7354883421E
:100AA00000D11FE107DC344934481940814200D1AC
:100AB00038E7334934E733498B4200D132E73249D2
:100AC0008B4200D023E7002308A80380012105E022
:100AD00080235B009F4204D112212C48FFF79AFE2D
:100AE000E4E680239B009F4202D199212848F5E744
:100AF000019B032B00D07CE0029B032B00D906E76F
:100B000008AC48220021200001F018F8019B637016
:100B1000029B002B40D1043323701E4B63802000C6
:100B20002178DBE700500041FF5000411004002015
:100B3000FFFFFF8F3407002014050020FF3F00F067
:100B40000F04002030070020EC0300200203000007
:100B5000FFFE0000010300002109000081060000E3
:100B6000A10300009C050020580500206806002015
:100B700024060020A1210000FFFEFFFF210A000043
:100B80002120000021220000A1FE0000BC1B00006B
:100B9000F80000200904000004AF3A000026524B80
:100BA00023CB23C235001B681360B3004F4AFB58A8
:100BB000A818019219680122FFF7F4FB01362D18DD
:100BC000042EF2D1019B009AED1800232B7092792C
:100BD000474B9200D558280000F0C1FF2300013098
:100BE000400020702A7802330135002A97D01A700D
:100BF000F8E7019B0F2B02D139213E486EE7019B9C
:100C0000212B02D109213C4868E7019B222B00D00F
:100C10007DE62121394861E7072800D077E6AA213F
:100C200037485BE7039B08A80221038056E7084288
:100C300000D06CE60F235022034008335B011042C2
:100C400006D0304A9B189B799B06DB0F08A8EBE780
:100C50002C4A9B189B79DB06F7E70F2403002340FF
:100C6000204200D153E60140394300D04FE6254AE7
:100C700008335B019B182022000600D410225A7111
:100C800050E60F2403002340204200D13FE60140FC
:100C9000394300D03BE61B4A1B495B019A185B189D
:100CA00000060FD52021D879084200D13AE65971C3
:100CB0001B7A2B4200D135E613004022FF331A7213
:100CC0003E3ADCE71020D979014200D12AE658717A
:100CD0001B7A01180B4200D124E61300FF330122D6
:100CE0001972CCE70948F9E6D01B0000EE0300209A
:100CF000881B0000BC00002094010020981B00000D
:100D00001000002000500041FF500041080000206A
:100D100010B5FFF725FC0022034B1A700223034A8B
:100D200011780B43137010BD0F04002000500041D8
:100D300010B50C000122FFF767FD200010BD10B5B3
:100D40000C000122FFF760FD200010BD70B504000B
:100D50000D00FFF777FD03000020834204D002223C
:100D600029002000FFF7F0FC70BD70B505000C00F5
:100D7000FFF768FD002807D0002302222100280089
:100D8000FFF7E7FC200070BD0400FBE730B500234F
:100D90002025934200DB30BD0C78002C03D00131BC
:100DA000C4540133F5E72C00FAE70000F8B58026BB
:100DB0000C00B600050032000021200000F0BEFE4D
:100DC000002D0CD13E222000474900F0BFFEFF233A
:100DD00055225B00E254454B9218E254F8BD7E2D3B
:100DE00022D86E1E3E2E01D9403D2E00002E06D187
:100DF000F0230922FF212370601C00F09FFE802554
:100E00003302581C3A4EFF30AD001A1F591CAA423B
:100E100003D2B34206D08BB223800B000234884247
:100E2000F3D1DBE7334BF7E7822D2FD87F2DD5D1D8
:100E30000B2220003049FFF7A9FF672728232F4EF8
:100E4000E3727D3D7F42F068203400281BD000F023
:100E500086FE030A6377030C2077A377000E2B0A24
:100E60003100E077A576E3760B222000FFF78EFFB6
:100E70004D230135ADB2277463742776637610363F
:100E8000052DE0D1AAE78020C002E2E72A00833ADC
:100E9000012A0CD8194B12019B18DD68280000F0BC
:100EA0005EFE29000200200000F050FE96E780233D
:100EB000853D29029B02994200D38FE7104B114ACE
:100EC0002360114B20006360FE235B00E25080230F
:100ED00080229B01A3600D4B52006561A661E16019
:100EE0002261E3612030DFE7E01B0000FF0100002A
:100EF00003020000FFFF00000B1C0000201C00008C
:100F00005546320A306FB10A57515D9E882BED6805
:100F100070B516001D000A68304B0C009A4253D180
:100F20002F4B4A689A424FD1FE2252002D4B8A58CD
:100F30009A4249D18B689A0403D52B4AC9699142D8
:100F400042D1DB0712D4802322695B009A420DD183
:100F5000E068C3B2002B09D1F022244B5202C3181F
:100F6000934203D221002031FFF7F8F8002D2CD056
:100F7000A369002B29D09922296892008B4206D0C0
:100F8000934201D2002901D001235B422B606369A7
:100F9000934219D2072201211A409140DB08EB1835
:100FA0001A7AC8B2114204D16968024301311A7237
:100FB00069606A682B689A4206D3002E04D10C4BF4
:100FC0000C4A1B681E33136070BD002EFCD1084B09
:100FD000084A1B682D33FF33F5E7C0465546320AF1
:100FE00057515D9E306FB10A882BED6800E0FFFF1E
:100FF000E4030020E0030020F8B5624DAB68002B4D
:1010000000D0FEE70221604B5A6B8A435A63DA68CC
:101010001205FCD55D4A5A630222596B0A435A6392
:10102000DA689205FCD5DA685205FCD402215A6BC5
:101030008A435A63DA681205FCD50822596B0A43C1
:101040005A630222596B0A4351495A630B680133B0
:1010500021D120224F4BFF32188B02431A8358684C
:101060004D4A02435A604D4ADA614D4A1A801A7D50
:10107000D207FCD54B4A1A801A7DD207FCD54A4AC2
:101080000A604A4A4A4911604A4A1A801A7DD207C0
:10109000FCD5FFF7E9F90023474A1370D379DB0940
:1010A000FCD1FFF74FFA454B1E68454BF218F02371
:1010B0005B029A4213D8434B434A1968434C444B52
:1010C000914232D11978434AC90702D4216891422A
:1010D0002BD0414B22601B68404A32331360FFF72C
:1010E0005DF8BFF35F8F62B6FFF712FE4020FFF797
:1010F00035FA80270A230126394DFF012B70FFF7AF
:10110000A1FB384C00280AD02378DAB2002B05D195
:10111000324B38001A60FFF721FA2E7026702378C0
:10112000002B25D000F0DEFAFCE71B78DB07DA0F96
:10113000002B0DD00023802223602B4B12041A6059
:1011400080239B011A6882F30888AB603047C6E7AA
:101150002168264B994201D12260C0E721681D4ACF
:101160009142E7D0FA2023604000FFF707F9E1E75A
:101170002378002BC3D1FF33C046013B002BFBD1AA
:10118000BDE7C04600ED00E0000800400400270075
:10119000004080000040004180000400002040002A
:1011A00005A5FFFF44A5FFFFFAC7E0D80440800073
:1011B0005DFCFFFF06A5FFFF0010004004200000BB
:1011C00000E0FFFFB42000007CB0EE87FC3F002071
:1011D00038040040EF6926F0E4030020E00300201B
:1011E000050000207407002094440041EF6916F0C8
:1011F000112210B50021044800F0A0FCF022034B9E
:101200001A70E63ADA7110BDED090020EC090020F1
:1012100010B5FFF7EDFF0022014B1A7310BDC04659
:10122000C4010020F7B580270400160000250191B5
:10123000BF00A368AB4200D8F7BD3900A278019B7C
:10124000E068FFF786FA80235B01E818012233008B
:10125000E168FFF75DFE0135EBE770B513000600AE
:101260000C00150000200A000121FFF7FDF9002302
:10127000984206D02B0022001F213000FFF7F4F91E
:101280000123180070BD000010B504220D21024892
:10129000FFF7BAFA10BDC046C401002010B50B48D4
:1012A0000B4A437901791B020B43817909041943E5
:1012B000C3791B060B43190A13715171190C1B0ECC
:1012C0009171D371FFF7E0FF10BDC046FE09002009
:1012D000C401002070B504220D00FFF795FA154CEB
:1012E00085420FD0FFF784FF012304222373124BA2
:1012F0009A700022DA701A715A719A711A735A73BD
:10130000FFF7CCFFFFF784FF637A227A1B021343B7
:10131000A27A12041A43E37A1B061343591B0B0AE1
:10132000217263720B0C090EA372E172FFF7B6FF14
:1013300070BDC046C4010020EC09002070B5184CF7
:10134000142205000021200000F0F8FB154A002DB2
:101350001ED00823D07D14493F26527C32401C2ADF
:1013600001D0B24205D1114A0C330A800522DBB20A
:10137000CA70191C834200D9011CC9B2002D0BD0C0
:10138000023B9BB21B0223802000FFF7A3FF70BD2E
:101390000423D07C0649DFE7013B2370F4E7C04615
:1013A00080070020FE090020880700201C0A00009A
:1013B00084070020F7B50025294A0400537C907C5F
:1013C000D17C00041B0603430902107D0B43034339
:1013D0000193937DD27D1B0213430093009BAB428C
:1013E00004D8FFF715FFFFF759FFF7BDFFF72AFAFB
:1013F0000028FAD0019B1B4E5F19002C1FD0310032
:101400003800FFF7D3FC8021042230008900FFF769
:10141000FBF9154A0135537A117A1B020B43917A75
:1014200009041943D37A1B060B4310495B18190AA8
:1014300013725172190C1B0E9172D372CEE7802178
:101440002300300005228900FFF783F922003100D4
:101450003800074BFFF75CFDFFF75EF8D9E7C046A1
:10146000FE090020EC070020C401002000FEFFFF61
:10147000940700207FB500F025FB434E0022052194
:101480003000FFF7EAFE002849D0727A337A120260
:101490001A43B37AF57A1B0413432D063B4C1D43C4
:1014A0002B0A63722B0CA3722B0E2572E372F07B56
:1014B0002F2827D8192815D8032827D012282FD04D
:1014C00000283ED0FFF794FE012305222373304B02
:1014D0009A700022DA701A715A719A711A73203256
:1014E0005A7330E01A381528ECD800F013FB262A7E
:1014F000EBEB2AEBEBEBEB3DEB2FEBEB37EB3BEBCB
:10150000EBEBEB2A5A28DDD1012017E0F37C191C04
:10151000122B00D912211E48C9B2FFF7DBFE7FBD96
:101520001C4918221C48FFF731FCF37C191C242BA2
:1015300000D924211948C9B2EFE70020FFF7FEFEC9
:10154000EDE7FFF765FEFFF7A9FEE8E78023144803
:101550009B024360134B08210360DEE70120FFF785
:1015600029FFDCE70020FAE70C260F49320001A82A
:1015700000F0ECFAB54204D9002326726372A3721C
:10158000E3720C2101A8C8E7FE090020C401002075
:10159000EC0900207E1B0000A8010020A001002013
:1015A0007807002000003E7F0E1D000072B6BFF3DA
:1015B0005F8F044B044A9A829A830022034B9A60FD
:1015C0007047C04600500041FF03000000ED00E0FE
:1015D000F0B5B5B00DAF0400FFF7E8FF44220021DD
:1015E000380000F0ABFA582200211EA800F0A6FA3D
:1015F00002230F22BB70637805AD13406370A3789C
:10160000E1681340A370264B2648059363680E3AA1
:101610000693002307932B731EABFFF779FC390069
:1016200020001EAAFFF7FEFD01230D21280062788D
:10163000FFF7A0F800253A00A17805A8FFF70DFEF6
:10164000002823D0164B01AE0193069B2322736022
:10165000079BB360002333736B469B181B78002BEA
:101660000FD02A2B19D16B465D8D39006DBAADB202
:10167000A56020001EAAFFF7D5FDB3686D025B1BB5
:10168000B36001230D2130006278D1E7064B9D4203
:1016900001D9FEF7B5FE0135CDE7FEF7E5FEF0E72F
:1016A00053425355FF0F0000F824010030B5EFF30B
:1016B0000883054C2360036883F308884568A847BE
:1016C000236883F3088830BD840A002007B5010031
:1016D00001226846FEF766FE08216846FFF728FBF0
:1016E00007BD00000023F7B57A227A4C23607A4BBD
:1016F00001931A70FFF7BEFE784D40212800FFF7D6
:1017000025FB774B186000232B54984201D0FEF73D
:1017100003FF744B1D600023714A734F16683B60D2
:101720009E42E7D96F4A11680878FF2836D06F4D7E
:10173000232800D0ADE001980078532832D12868E2
:101740000133013111603B60F21A824200D902007C
:10175000674D20682A6000F0F9F92968624D6148F8
:101760002B680268CB18013B2B604B1ED2185F4BD5
:10177000604E1B683170C9B202608B4203D9206889
:10178000591AFFF7F2FAC0467A22019B1A7000201C
:10179000564B544A1860136801331360524B1B6850
:1017A0000133B9E75A2810D84628EDD9473813280D
:1017B000EAD800F0AFF9381FE9E9E9E9E9E91BE9FE
:1017C000E916E9E9E94223454B586F2821D07728EB
:1017D00024D06828D8D1022123681B882B602800D8
:1017E00019E029682068FFF7AAFACDE723682A687C
:1017F0001A70C9E723682A681A80C5E73E4B226839
:101800009A4202D10020FEF7A9FE23682A681A60D6
:10181000BAE701212068FFF78BFAB5E723680421B6
:101820001B682B60DBE72868FFF740FF334B1B7812
:10183000002BA9D001213248EDE72A213148EAE7FF
:101840002868FEF74BFC30480321E4E72A6820684B
:101850002E4B002A02D118602D48F5E7196892082E
:10186000FEF754FCF8E72F6800252668F719BE42FA
:1018700008D101212748FFF75BFA2800FFF726FF70
:101880002548E1E729003078FEF74CFD01360500D8
:10189000EDE70300303BDAB2092A03D828680001DB
:1018A000184375E70300413B052B03D82B683738F5
:1018B0001B01F5E70300613B052B03D82B68573864
:1018C0001B01EDE72C2802D12B6823605FE7019B09
:1018D00018705CE7700A0020740A0020290A0020B2
:1018E000780A00206C0A00207C0A0020800A002070
:1018F000240A0020280A00200CED00E0880A0020BD
:101900001A1D00002A1D00001C1D0000200A0020D6
:10191000201D0000241D0000261D00000300F7B557
:10192000473304001A78402103000020FEF79CFE94
:10193000002801D10020FEBD002604232670E356B6
:101940002779B342F6DB3F2320003B400193A51DDE
:10195000EB8F4830C018019A611D00F0F7F8E88F4E
:10196000019B181880B23F2F01D8E887E2E7EE8785
:10197000E1E7F0B506000C001F0093B001923F258F
:10198000AC4203DC2500002F00D140373B0002AA07
:101990002B43137002AB31002A00581C00F0D6F81C
:1019A0006B4640211A7902A80123FEF7E3FE76195F
:1019B000641BE4D113B0F0BD030010B547331A78AF
:1019C000043100234830FFF7D4FF10BDF7B5040001
:1019D000FFF7A4FF002841D0230048339A88A06C69
:1019E0001A80002201385A80082864D800F09CF838
:1019F000150522262429473E3700304E300000F0DE
:101A0000AEF80500200031002A004C3000F09EF8AE
:101A100029002000FFF7D0FF20E00123E364FF331B
:101A200023650133FF336365C03BA365244B142159
:101A3000E365EEE7FEF7E4FC0021EAE7FEF714FDBC
:101A4000FAE720000021FFF7B7FF8023206D9B01FC
:101A5000984203D321005431FEF780FBF7BD2100EB
:101A6000626D206D5831FEF746FBE5E72000656D9D
:101A7000216D2A004C30FEF73EFBA900C9E7002685
:101A8000636D276D0193019BB34201DC5900C0E7F0
:101A90003D0000212B001878FEF744FC7B1C01352B
:101AA000FF3301009D42F5D1230072004C332F001B
:101AB00098520136E7E701225A80BDE7C11C0000B9
:101AC000882BED680622064B10B506481A70FFF702
:101AD0007DFF0722044B05481A70FFF777FF10BD02
:101AE0005B0C0020140C0020D30A00208C0A00207C
:101AF00010B5E2B00400FFF759FDC422002168468A
:101B0000520000F01BF847236B441C706846FFF737
:101B10005DFFFBE702B471464908490009564900D8
:101B20008E4402BC7047C04602B471464908490061
:101B3000095C49008E4402BC7047C046030082180D
:101B4000934200D1704719700133F9E7002310B5B3
:101B50009A4200D110BDCC5CC4540133F8E7002395
:101B6000C25C0133002AFBD1581E70474F70656E6E
:101B7000456E657267794D6F6E69746F7200656D41
:101B80006F6E506933000000000000006C1B000005
:101B90007E1B0000EE0300200697FF0901A101153E
:101BA0000026FF0075089540090181029540090152
:101BB000910295010901B102C0000000120110025A
:101BC000EF020140EB030224014201020301000085
:101BD0000CA0800040A0800044A0800048A08000AD
:101BE000EB3C905546322055463220000201010060
:101BF0000240007E3EF83F000100010000000000AE
:101C00000000000080002942004200454D4F4E4236
:101C10004F4F540000004641543136202020000030
:101C2000494E464F5F55463254585400C11C00007F
:101C3000494E44455820202048544D00501C000077
:101C400043555252454E5420554632000000000084
:101C50003C21646F63747970652068746D6C3E0A12
:101C60003C68746D6C3E3C626F64793E3C73637299
:101C70006970743E0A6C6F636174696F6E2E726571
:101C8000706C616365282268747470733A2F2F6FCB
:101C900070656E656E657267796D6F6E69746F726F
:101CA0002E6F726722293B0A3C2F7363726970742E
:101CB0003E3C2F626F64793E3C2F68746D6C3E0A27
:101CC0000055463220426F6F746C6F6164657220FC
:101CD00076332E31362E302053464857524F0D0A58
:101CE0004D6F64656C3A20656D6F6E5069330D0AF7
:101CF000426F6172642D49443A2053414D44323160
:101D00004A3137412D656D6F6E33320D0A00000088
:101D1000000800003E80020002000600580A0D0084
:101D2000590A0D005A00230A0D0076312E31205B2E
:101D300041726475696E6F3A58595A5D204D6172EF
:101D400020323620323032342032313A35353A348E
:041D5000320A0D0046
:101D540001000000C801000000C2010000000800EA
:101D64000A00000000000306AA00080002000400A4
:101D7400A0001400030057494E55534200000000D0
:101D84000000000000008400040007002A00440052
:101D94006500760069006300650049006E00740008
:101DA400650072006600610063006500470055002D
:101DB400490044007300000050007B0039003200E9
:101DC4004300450036003400360032002D0039004F
:101DD4004300370037002D0034003600460045002C
:101DE4002D0039003300330042002D003300310050
:101DF40043004200390043003500420042003300F2
:101E0400420039007D00000000000000050F390089
:101E1400021810050038B60834A909A0478BFDA0A4
:101E2400768815B665000101001C100500DF60DD31
:101E3400D88945C74C9CD2659D9E648A9F00000347
:101E440006AA0002000000000902990005010080B2
:101E540032080B0002020201000904000001020220
:101E640001000524001001042402060524060001D3
:101E74000524010301070583030800FF0904010089
:101E8400020A000000070581024000000705020263
:101E940040000009040200020806500007058402FD
:101EA4004000000705050240000009040300020386
:101EB400000000092100010001222100070586031A
:101EC400400001070506034000010904040002FF65
:101ED4002A010007058703400001070507034000A6
:101EE40001000000090403000203000003000000D5
:101EF400008002022000000000000000000000003A
:101F040000000000000000000000000000000000CD
:101F1400312E3030534253550000000000000000C1
:041F240000000000B9
:101FF00000000000F11A0000D1150000C11C000013
:00000001FF
